{
  "_format": "hh-sol-artifact-1",
  "contractName": "Counter",
  "sourceName": "contracts/Counter.sol",
  "abi": [
    {
      "anonymous": false,
      "inputs": [
        {
          "indexed": false,
          "internalType": "uint32",
          "name": "counter",
          "type": "uint32"
        }
      ],
      "name": "CounterInc",
      "type": "event"
    },
    {
      "inputs": [],
      "name": "count",
      "outputs": [],
      "stateMutability": "nonpayable",
      "type": "function"
    },
    {
      "inputs": [],
      "name": "getCounter",
      "outputs": [
        {
          "internalType": "uint32",
          "name": "",
          "type": "uint32"
        }
      ],
      "stateMutability": "view",
      "type": "function"
    }
  ],
  "bytecode": "0x608060405234801561001057600080fd5b506103cd806100206000396000f3fe608060405234801561001057600080fd5b50600436106100365760003560e01c806306661abd1461003b5780638ada066e14610045575b600080fd5b610043610063565b005b61004d610141565b60405161005a91906102a6565b60405180910390f35b60008081819054906101000a900463ffffffff16809291906100849061032a565b91906101000a81548163ffffffff021916908363ffffffff160217905550506100f86040518060400160405280600e81526020017f436f756e746572206973206e6f7700000000000000000000000000000000000081525060008054906101000a900463ffffffff1663ffffffff1661015a565b7fb09f51db20aa473fdbfaa438388bca074ae4954884c8a48c9095abee19067dba60008054906101000a900463ffffffff1660405161013791906102a6565b60405180910390a1565b60008060009054906101000a900463ffffffff16905090565b6101f28282604051602401610170929190610276565b6040516020818303038152906040527f9710a9d0000000000000000000000000000000000000000000000000000000007bffffffffffffffffffffffffffffffffffffffffffffffffffffffff19166020820180517bffffffffffffffffffffffffffffffffffffffffffffffffffffffff83818316178352505050506101f6565b5050565b60008151905060006a636f6e736f6c652e6c6f679050602083016000808483855afa5050505050565b600061022a826102c1565b61023481856102cc565b93506102448185602086016102f7565b61024d81610386565b840191505092915050565b610261816102dd565b82525050565b610270816102e7565b82525050565b60006040820190508181036000830152610290818561021f565b905061029f6020830184610258565b9392505050565b60006020820190506102bb6000830184610267565b92915050565b600081519050919050565b600082825260208201905092915050565b6000819050919050565b600063ffffffff82169050919050565b60005b838110156103155780820151818401526020810190506102fa565b83811115610324576000848401525b50505050565b6000610335826102e7565b915063ffffffff82141561034c5761034b610357565b5b600182019050919050565b7f4e487b7100000000000000000000000000000000000000000000000000000000600052601160045260246000fd5b6000601f19601f830116905091905056fea2646970667358221220684c3c911ff202d65f5405e00c848819b9c41cbfe1996b1ed56be760e98ffdd864736f6c63430008000033",
  "linkReferences": {},
  "deployedLinkReferences": {}
}